:100000000C94DB000C9403010C9403010C94030189
:100010000C9403010C9403010C9403010C94030150
:100020000C9403010C9403010C9403010C94030140
:100030000C9403010C9403010C9403010C94030130
:100040000C9471200C9403010C943F200C94192003
:100050000C9403010C9403010C9403010C94030110
:100060000C9403010C94030100407A10F35A00A091
:10007000724E18090010A5D4E80000E87648170071
:1000800000E40B54020000CA9A3B000000E1F505B1
:10009000000080969800000040420F000000A086FB
:1000A00001000000102700000000E803000000002D
:1000B0006400000000000A000000000001000000D1
:1000C00000002C76D888DC674F0823DFC1DFAE59EB
:1000D000E1B1B796E5E3E453C63AE651997696E87E
:1000E000E6C28426EB898C9B62ED407C6FFCEFBC02
:1000F0009C9F40F2BAA56FA5F490055A2AF75C932D
:100100006B6CF9676DC11BFCE0E40D47FEF520E662
:10011000B500D0ED902E0300943577050080841E45
:10012000080000204E0A000000C80C333333330FA0
:10013000986E12831141EF8D2114893BE65516CF3D
:10014000FEE6DB18D1844B381BF77C1D901DA4BB49
:10015000E424203284725E228100C9F124ECA1E5FE
:100160003D27000000080002010000030407000012
:1001700000000000000000000000250028002B0007
:1001800000000000240027002A00040404040404E2
:100190000404020202020202030303030303010236
:1001A0000408102040800102040810200102040805
:1001B00010208F23532E11241FBECFEFD8E0DEBFB7
:1001C000CDBF13E0A0E0B1E0EAE1FCE602C005909B
:1001D0000D92A635B107D9F726E0A6E5B3E001C038
:1001E0001D92AC35B207E1F710E0CAEDD0E004C0D3
:1001F0002197FE010E94E533C93DD107C9F70E944E
:1002000033250C9400360C9400008CBD9DBD0895E0
:1002100090E0FC01E256FE4F249186579E4FFC0170
:100220008491882399F090E0880F991FFC01E05891
:10023000FE4FA591B491FC01EA58FE4F859194912F
:100240008FB7F894EC91E22BEC938FBF089520E3E5
:10025000FC0120833296862F82958F706F706A30F2
:1002600030F4605D6293682F8111F5CF0895695C69
:10027000F9CFFC01818D928D08950895AF92BF92C0
:10028000CF92DF92EF92FF920F931F93CF93DF9362
:100290006C017B018B01040F151FEB015E01AE1891
:1002A000BF08C017D10759F06991D601ED91FC91B3
:1002B0000190F081E02DC6010995892B79F7C501E0
:1002C000DF91CF911F910F91FF90EF90DF90CF9032
:1002D000BF90AF900895FC01538D448D252F30E0E1
:1002E000842F90E0821B930B541710F0CF96089543
:1002F00001970895FC01918D828D981761F0A28D70
:10030000AE0FBF2FB11D5D968C91928D9F5F9F7335
:10031000928F90E008958FEF9FEF0895FC01918DEB
:10032000828D981731F0828DE80FF11D858D90E058
:1003300008958FEF9FEF0895FC01918D228D892FF5
:1003400090E0805C9F4F821B91098F7399270895DD
:1003500086EC94E00E949C0121E0892B09F420E0C6
:10036000822F089580E090E0892B29F00E94A80157
:1003700081110C9400000895FC01A48DA80FB92FE1
:10038000B11DA35ABF4F2C91848D90E001968F73BD
:100390009927848FA689B7892C93A089B1898C91DC
:1003A000837080648C93938D848D981306C002882B
:1003B000F389E02D80818F7D80830895EF92FF92F5
:1003C0000F931F93CF93DF93EC0181E0888F9B8D78
:1003D0008C8D98131AC0E889F989808185FF15C032
:1003E0009FB7F894EE89FF896083E889F989808155
:1003F0008370806480839FBF81E090E0DF91CF9124
:100400001F910F91FF90EF900895F62E0B8D10E045
:100410000F5F1F4F0F731127E02E8C8D8E110CC0B4
:100420000FB607FCFACFE889F989808185FFF5CFFF
:10043000CE010E94BC01F1CFEB8DEC0FFD2FF11D21
:10044000E35AFF4FF0829FB7F8940B8FEA89FB893C
:1004500080818062CFCFCF93DF93EC01888D88239A
:10046000B9F0AA89BB89E889F9898C9185FD03C017
:10047000808186FD0DC00FB607FCF7CF8C9185FFFC
:10048000F2CF808185FFEDCFCE010E94BC01E9CF84
:10049000DF91CF91089590E0FC01EE59FE4F249139
:1004A000FC01E256FE4F3491FC01E657FE4FE49109
:1004B000EE23C9F0222339F0233001F1A8F42130D2
:1004C00019F1223029F1F0E0EE0FFF1FEA58FE4F3C
:1004D000A591B4918FB7F894EC91611126C0309535
:1004E0003E233C938FBF08952730A9F02830C9F0F0
:1004F000243049F7809180008F7D03C08091800077
:100500008F7780938000DFCF84B58F7784BDDBCF7A
:1005100084B58F7DFBCF8091B0008F778093B00042
:10052000D2CF8091B0008F7DF9CF3E2BDACF3FB78D
:10053000F8948091DE039091DF03A091E003B091E5
:10054000E10326B5A89B05C02F3F19F00196A11D18
:10055000B11D3FBFBA2FA92F982F8827BC01CD010D
:10056000620F711D811D911D42E0660F771F881F6C
:10057000991F4A95D1F708958F929F92AF92BF929B
:10058000CF92DF92EF92FF924B015C010E949702A3
:100590006B017C010E9497026C197D098E099F09ED
:1005A000683E734081059105A8F321E0821A910805
:1005B000A108B10888EEC80E83E0D81EE11CF11C2A
:1005C00081149104A104B10429F7FF90EF90DF900A
:1005D000CF90BF90AF909F908F9008952FB7F894D1
:1005E0006091DA037091DB038091DC039091DD036D
:1005F0002FBF0895FC0120812EBD9B0121503109A0
:1006000041F051810DB407FEFDCF4EB55EBD419363
:10061000F5CF61507109860F971F0DB407FEFDCF0E
:100620002EB5FC0120830895E091E303F091E403EB
:1006300080819091E203892B80830895E091E30308
:10064000F091E40390818091E20380958923808377
:10065000089590E02091C404233339F40C96982F28
:10066000990F990F990F80E008954896F8CFCF938E
:10067000DF931F92CDB7DEB76983DC01ED91FC916A
:100680000280F381E02D41E050E0BE016F5F7F4FBB
:1006900009950F90DF91CF910895FC019485FB019E
:1006A0008485981303C081E0943008F080E00895B9
:1006B000CF93DF931F92CDB7DEB76983DC01ED9155
:1006C000FC910280F381E02D41E050E0BE016F5FBC
:1006D0007F4F09950F90DF91CF910895FC0184859C
:1006E00095850895FC0184899589089526EE31E069
:1006F000FC0131832083FB01408951896289738920
:10070000FC0142835383648375830895DC01ED917A
:10071000FC91048CF58DE02D0994CF93CFB7F8941C
:100720008091D803811124C0E4E9F1E08491E8EAE2
:10073000F1E09491E82FF0E0EE0FFF1FE058FE4F3C
:10074000A591B491EC91E92321F461E08AE00E9443
:100750004B028AE00E9408018CB580618CBD8CB58B
:1007600080648CBD8DE00E9408018BE00E9408012E
:100770008091D8038F5F8093D803CFBFCF91089526
:100780000F931F93CF93DF93FC018B01EA018081CC
:100790009181892B31F19281992349F12881398105
:1007A000232BF9F0D8012D913C91D9014C918381F3
:1007B000682F691B770B80819181860F971FDC0161
:1007C0004C9382818150828388819981019799839A
:1007D0008883D8018D919C91119701968D939C935C
:1007E000DACF80E0DF91CF911F910F91089583813F
:1007F000828381E0F7CFDC01ED91FC910480F581EB
:10080000E02D099480E00895CF93DF93EC011A8ADC
:100810008C819D81DC01ED91FC910480F581E02DBE
:10082000688509951A861B8681E08C8718861D8647
:100830001E861F86188A198A80E0DF91CF9108955D
:10084000089580E00895FC0183890895FC01828960
:100850000895FC0180850895DF92EF92FF920F9337
:100860001F93CF93DF93EC0185E0E62EF12CFE0180
:10087000869FE00DF11D1124908596FF24C0192F4D
:10088000177001E085E0D82E8FEF800F8F3008F0D1
:1008900001E0602F70E0062FD69EF001D79EF00D8C
:1008A0001124EC0FFD1F80858695869586958770AF
:1008B000181701F16F5F7F4F603168F38D818113ED
:1008C00002C011501D8385E08E9DF0018F9DF00DBB
:1008D0001124EC0FFD1F108681E08187128622967D
:1008E000D783C683DF91CF911F910F91FF90EF9037
:1008F000DF900895CE010E942C04C6CFFC0121E0B8
:10090000613499F49C01255B3F4F61E0AC014E5F7F
:100910005F4F1586668717865487438735962E174F
:100920003F07B9F7FC01158208953585631729F053
:100930002F5F35962031C9F70895622F0C942C044F
:10094000CF93DF93FC0167FD12C0283080F444236D
:1009500019F08581873059F0EF01A1E0B0E08D8575
:10096000882349F111962596A031B105C1F780E0A1
:1009700018C085E08A9FE0018B9FD00D1124CE0F17
:10098000DF1F442389F081E4888785818F5F858319
:1009900025E02A9FC0012B9F900D1124E80FF91F1D
:1009A0008085DF91CF91089581E08887F1CF27700E
:1009B000687B622B0FC06623E1F26770660F660FDB
:1009C000660F4423A1F3606485818F5F8583877000
:1009D000687F682B25E02A9FC0012B9F900D112472
:1009E000E80FF91F6087862FDCCFFC0121E0611141
:1009F00002C0069608953585631739F02F5F359646
:100A00002031C9F790E080E00895069635E0239FF5
:100A1000800D911D1124089580E0089590E080E0FC
:100A20000895CF93DF93FC01DA018281882359F086
:100A3000813069F081E023813481232B09F080E04B
:100A4000DF91CF9108953483238381E08283838172
:100A500094810097B1F02D913C911197232B51F384
:100A6000019794838383EB0188819981019699830F
:100A700088838D919C911197019711969C938E93E9
:100A8000E6CF1282D7CF2F923F924F925F926F9212
:100A90007F928F929F92AF92BF92CF92DF92EF920E
:100AA000FF920F931F93CF93DF9300D000D0CDB769
:100AB000DEB76C017A8369835C834B832C0182E10E
:100AC000480E511C83E0282E5601A7E0AA0EB11C47
:100AD00012E0332433944601B0E18B0E911C3601B1
:100AE000EBE06E0E711C29813A812115310509F464
:100AF000D4C0D60190968C918230F1F0B0F5882365
:100B000009F45AC0813089F7AE014F5F5F4FBE01D3
:100B10006D5F7F4FC5010E94C003882309F4BDC0EB
:100B2000D6011596ED91FC911697808191968C9344
:100B30009197818192968C93F6015682458220A2EC
:100B4000D60192968C919297843011F493961C92D0
:100B5000F60181A1825084832581368130872783E5
:100B60008287818784E080A305C0833049F3843085
:100B700009F0BBCFD60192968C91843039F1853043
:100B800009F44FC0823009F079C0AE014F5F5F4F6A
:100B9000BE016D5F7F4FC5010E94C003882309F429
:100BA0007CC0F601858984A3D60116969C928E920C
:100BB000159790961C9297CFF601148385819681A4
:100BC000908787831287118730A29ECFAE014F5F37
:100BD0005F4FBE016D5F7F4FC5010E94C003882338
:100BE00009F45BC0D60155968C9155978230E1F699
:100BF00056968C9156978230B9F698969C91989714
:100C000057968C91992351F0882371F2F60133A203
:100C1000928996A3938997A385A3C6CF813021F6A5
:100C2000F5CFAE014F5F5F4FBE016D5F7F4FC501D6
:100C30000E94C003882389F1D60193968C919397E3
:100C4000882309F4B1CF12968D919C91009709F4F5
:100C5000ABCFDC01ED91FC910190F081E02D7401AE
:100C6000D60195960C91959797962C919797969675
:100C70004C91969794966C91099596CFF60121A187
:100C80002250330BAE014F5F5F4FBE016D5F7F4F50
:100C9000C3010E941105811187CF0F900F900F9013
:100CA0000F90DF91CF911F910F91FF90EF90DF9008
:100CB000CF90BF90AF909F908F907F906F905F90FC
:100CC0004F903F902F9008952F923F924F925F92B6
:100CD0006F927F928F929F92AF92BF92CF92DF924C
:100CE000EF92FF920F931F93CF93DF9300D000D02A
:100CF000CDB7DEB76C017A8369835C834B832C01AB
:100D000082E1480E511C83E0282E5601A7E0AA0E6E
:100D1000B11C12E0332433944601B0E18B0E911CD8
:100D20003601EBE06E0E711C29813A8121153105E7
:100D300009F4D2C0D60190968C918230F1F0B0F5D2
:100D4000882309F45AC0813089F7AE014F5F5F4FA5
:100D5000BE016D5F7F4FC5010E94C003882309F467
:100D6000BBC0D6011596ED91FC91169780819196A6
:100D70008C939197818192968C93F601568245824D
:100D800020A2D60192968C919297843011F493967A
:100D90001C92F60181A1825084832581368130879F
:100DA00027838287818784E080A305C0833049F34D
:100DB000843009F0BBCFD60192968C91843039F102
:100DC000853009F450C0823009F077C0AE014F5F22
:100DD0005F4FBE016D5F7F4FC5010E94C003882336
:100DE00009F47AC0F601858984A3D60116969C92EF
:100DF0008E92159790961C9297CFF6011483858159
:100E00009681908787831287118730A29ECFAE018B
:100E10004F5F5F4FBE016D5F7F4FC5010E94C003F2
:100E2000882309F459C0D60155968C9155978A307C
:100E3000E1F698968C9198978111D7CF93963C9232
:100E4000939752968C91529796968C939697539629
:100E50008C91539797968C93979757968C91579719
:100E600095968C93C2CFAE014F5F5F4FBE016D5F11
:100E70007F4FC5010E94C003882371F1F60183A151
:100E8000882309F4B2CF82819381009709F4ADCF12
:100E9000DC01ED91FC910190F081E02D7401D6010F
:100EA00095960C91959797962C91979796964C912D
:100EB000969794966C91099598CFF60121A12250AE
:100EC000330BAE014F5F5F4FBE016D5F7F4FC301BC
:100ED0000E941105811189CF0F900F900F900F90F4
:100EE000DF91CF911F910F91FF90EF90DF90CF9006
:100EF000BF90AF909F908F907F906F905F904F903A
:100F00003F902F90089581E0089580E0089508951E
:100F100080E008952A9808952A9A0895FC0176871A
:100F200065870895DC01ED91FC91068CF78DE02D2D
:100F3000099591E089270895862F089581E08627F5
:100F4000089521E0FC018485843008F020E0822FA0
:100F5000089508950F931F93CF93DF93D82FC62F33
:100F60008A0180E591E00E9405010E948A07D26013
:100F7000DEBDF8018C2F882339F00DB407FEFDCFBC
:100F800091919EBD8150F7CFC00FD12FD11D0DB4CF
:100F900007FEFDCF0E948C07CE01DF91CF911F91FC
:100FA0000F9108950F931F93CF93DF9300D0CDB788
:100FB000DEB7182F062F80E591E00E9405010E9400
:100FC0008A07126019830A8362E070E0CE010196FD
:100FD0000E94FA020E948C070F900F90DF91CF9130
:100FE0001F910F9108958EBD00000DB407FEFDCF37
:100FF0008EB50895AF92BF92CF92DF92EF92FF929B
:101000000F931F93CF93DF93CDB7DEB728970FB61B
:10101000F894DEBF0FBECDBF8C017B016A018091C9
:10102000C4048333E1F45801A40EB51EA016B10622
:1010300009F46FC00E941E0380EF0E94F307812F06
:101040000E94F307802F0E94F3070F5F1F4FF701E5
:1010500081917F010E94F3070E941403E7CF5B0197
:10106000A40EB51E8433C1F40E941E0319830A83A3
:101070008D2D80688B83CC8264E070E0CE01019678
:101080000E94FA02AE14BF0409F441C0F701819135
:101090007F010E94F307F6CF0E941E030F3F110548
:1010A00009F028F419820A8384E08B830CC017FDB1
:1010B00017C019820A8333E0169507953A95E1F730
:1010C000007E0C600B8386E0C816D104A0F5F70102
:1010D000DE011496EA15FB0599F081918D93FACF04
:1010E000C80126E0969587952A95E1F7807E1983B9
:1010F0000A830115104C10F48461D7CF8C61D5CFD1
:10110000B6016D5F7F4FCE0101960E94FA020E94E8
:101110001403C60128960FB6F894DEBF0FBECDBFEC
:10112000DF91CF911F910F91FF90EF90DF90CF90C3
:10113000BF90AF90089563E070E0CE0101960E94E9
:10114000FA02F70181917F010E94F307AE14BF04F8
:10115000C1F7DDCFCF93DF931F92CDB7DEB7898381
:1011600041E050E0BE016F5F7F4F90E080E00E9461
:10117000FA070F90DF91CF910895DA01E091E5032E
:10118000F0E0FE2FEE27E60FF71F90E0982F88275C
:10119000A901BD018E0F9F1F0C94FA07CF93DF9317
:1011A00000D0CDB7DEB779836A8322E030E0AE01AC
:1011B0004F5F5F4F60E170E00E94BD080F900F909D
:1011C000DF91CF910895CF93DF9300D0CDB7DEB7F5
:1011D00079836A8322E030E0AE014F5F5F4F64E0C5
:1011E00070E00E94BD080F900F90DF91CF9108959D
:1011F000FF920F931F93CF93DF93EB01FC01178AAC
:10120000168A2A81211109C02B81211106C02C8147
:10121000211103C02D81222301F141155105E9F06F
:101220008A01FC01F08C80E591E00E940501AE018D
:101230004E5F5F4F24E030E06CE070E08F2D0E9445
:10124000BD08B8018F2D0E94CE0881E090E0DF91AB
:10125000CF911F910F91FF90089580E0F7CFCF932A
:10126000DF931F92CDB7DEB72091E50330E0322F38
:101270002227260F371F90E0982F8827498341E0C7
:1012800050E0BE016F5F7F4F820F931F0E94FA07ED
:101290000F90DF91CF910895CF93C82F80E591E013
:1012A0000E9405010E948A078C2F0E94F30780E0AC
:1012B0000E94F307C82F0E948C078C2FCF910895AE
:1012C0008F929F92AF92BF92CF92DF92EF92FF9256
:1012D0000F931F93CF93DF93882E962E5A010E946F
:1012E000EE026B017C0128E8C20E23E1D21EE11C54
:1012F000F11C10E000E0D0E0C0E098280E94EE026F
:101300006C197D098E099F0997FF1EC0692D80EF1A
:101310000E94D2070E94EE026C197D098E099F0976
:1013200097FF09C088EC0E944C0987FFF3CF60E863
:1013300088EC0E94D20788EF0E944C09C82FCF701A
:10134000C43081F0CE30B9F08C2FDF91CF911F9156
:101350000F91FF90EF90DF90CF90BF90AF909F9054
:101360008F9008950F5F1F4FA114B10439F20A1531
:101370001B0521F6E9CFDF5FD33009F0BFCFE4CF03
:101380002F923F924F925F926F927F928F929F9295
:10139000AF92BF92CF92DF92EF92FF920F931F9383
:1013A000CF93DF9300D000D01F92CDB7DEB79D83DF
:1013B0008C834B017A016901FC0111818FEF810F50
:1013C000803408F0CBC00E94EE022B013C01F8E80B
:1013D0004F0EF3E15F1E611C711CEC81FD81828167
:1013E00060E480FD60E888EE0E94D207312C812FF6
:1013F00090E09A838983E114F10409F48BC0098198
:101400001A81E016F10608F487010B83A601602F0C
:1014100080E10E94AA07602F88E30E94D207EC8136
:10142000FD816081606280EF0E94D20788EC0E949B
:101430004C0987FFFBCF60E888EC0E94D20788EF59
:101440000E944C098F70382EB12CA12C212C3320F6
:1014500001F10E94EE02641975098609970997FF48
:1014600018C0F6E03F1609F440C02EE03216B1F085
:1014700084E0381209C09FEFA91AB90A81149104B7
:1014800089F0A814B90471F460E088E30E94D207DF
:1014900043C0E01AF10AC00ED11EADCF2394E3E0A1
:1014A0002E1691F360E088E30E94D207F601608176
:1014B00080E10E94D2076B8188E30E94D207EC8111
:1014C000FD816081606280EF0E94D20788EC0E94FB
:1014D0004C0987FFFBCF60E888EC0E94D20788EFB9
:1014E0000E944C098F70382EB2CF88EF0E944C09B1
:1014F00085FB882780F9F1E08F27EC81FD819281BF
:1015000080FB90F9928360E490FD60E888EE0E9491
:10151000D207C8CF3110B8CF88EF0E944C09EC81B8
:10152000FD81928185FB90F99283832D0F900F901E
:101530000F900F900F90DF91CF911F910F91FF901F
:10154000EF90DF90CF90BF90AF909F908F907F9063
:101550006F905F904F903F902F9008958AED382EB6
:10156000E4CFAF92BF92CF92DF92EF92FF920F93B0
:101570001F93CF93DF93EC01B62EA42E69010E9436
:10158000F5047C0186EDE114F10409F447C0D701AC
:10159000ED91FC91119787ED309709F43FC01396B8
:1015A0009C9180E0981731F02081A21629F03396A3
:1015B0008F5FF8CFF0E0E0E0D601ED93FC938BED88
:1015C000309761F1228126952695203108F02FE091
:1015D00081E090E0A0E0B0E004C0880F991FAA1F4E
:1015E000BB1F2A95D2F70197F801918380836B2D59
:1015F00080EE0E94D20788ED0E944C09D701149614
:101600009C91682F697F992329F0CA58DF4F688120
:101610006260682B88ED0E94D20780E0DF91CF9155
:101620001F910F91FF90EF90DF90CF90BF90AF9000
:10163000089588EF0E944C09807C8034B1F018F442
:10164000882301F10895803819F0803CC9F008958D
:1016500088ED0E944C0981FD0DC069EC88ED0E9467
:10166000D20782E08093C504089588ED0E944C095A
:1016700081FDF3CF6BEC88ED0E94D20783E0F2CFBF
:1016800081E0F0CF61ED88ED0E94D2071092C50491
:101690000895CF92DF92FF920F931F93CF93DF9322
:1016A000F62E01E0C82FD0E0CC0FDD1FCA5ED94F67
:1016B0006E0188819981DC01ED91FC910280F381BA
:1016C000E02D2F2D40E060E00995182F803E49F570
:1016D00061E088EE0E94D20766E670E080E090E06C
:1016E0000E94BC02F60180819181DC01ED91FC91A8
:1016F0000190F081E02D2F2D40E060E00995182F3A
:101700008D3041F58FEF800F833088F061E088EEF7
:101710000E94D20766E670E080E090E00E94BC0282
:1017200010C08D3061F48FEF800F833050F464E689
:1017300070E080E090E00E94BC020F5FBACF882387
:1017400089F2812FDF91CF911F910F91FF90DF9050
:10175000CF9008958823A9F3D9CF2F923F924F922B
:101760005F926F927F928F929F92AF92BF92CF9231
:10177000DF92EF92FF920F931F93CF93DF937B0142
:101780003A016901F901A080B180FB013180F901C2
:1017900011821082FB01828160E181FD60E288EEAE
:1017A0000E94D2072A2CA301F701608180E00E94E9
:1017B0006009582EF6E08F1310C088EF0E944C0984
:1017C000F70192819D7F84FF9260928360E191FD99
:1017D00060E288EE0E94D207E6CF811150C088EC0B
:1017E0000E944C0982FF5FC080E30E944C09482E92
:1017F0008A151B0411F008F0422CF60180819181BA
:10180000E501C81BD90BD7FF02C0D0E0C0E0842C93
:10181000912C8C169D060CF4E40180E591E00E9469
:1018200005010E948A0788E00E94F307AE0170E07C
:1018300060E0C8010E94E335209721F0BE01C80195
:101840000E94FA020C0F1D1F0E948C0764E088ECB6
:101850000E94D207F60180819181880E991E9182A3
:101860008082431420F08A149B0408F49CCF88EFF4
:101870000E944C09F701928184FB91F99283852D96
:10188000DF91CF911F910F91FF90EF90DF90CF905C
:10189000BF90AF909F908F907F906F905F904F9090
:1018A0003F902F90089580EF582EE9CF2F923F92CE
:1018B0004F925F926F927F928F929F92AF92BF9260
:1018C000CF92DF92EF92FF920F931F93CF93DF930C
:1018D000CDB7DEB760970FB6F894DEBF0FBECDBFB1
:1018E0003C01542E422E302E2E2CEDA0FEA0188A44
:1018F0001F861E861D868E01035F1F4F9E01215F7E
:101900003F4F40E00E94B10A182F81117EC05982DA
:101910004A823B822C82DE82CD82B886AF82AE01C3
:101920004F5F5F4F68E080E20E94AA074D855E85A9
:1019300060E080E10E946009182F811166C0E11407
:10194000F10409F44EC0EF85F889828157FE4FC03B
:1019500082608283650144244394C114D10409F454
:1019600074C09C868B864D855E856F8578898701DE
:101970009E01255F3F4FC3010E94AD0B182F86309B
:1019800071F488EF0E944C09EF85F88985FB882760
:1019900080F98425928180FB91F99283DECF8111B9
:1019A00034C08FA198A50097A1F06B857C85DC01E0
:1019B000ED91FC9111970190F081E02DC5018C19FA
:1019C0009D099A8789879E01275F3F4FA701CD0117
:1019D00009958B859C85C81AD90A8815990508F040
:1019E000BCCF4D855E8557FE2AC080EA29C0816044
:1019F00082836D857E859701A401CF010E94C00975
:101A0000182F4D855E858823D1F0812F60960FB603
:101A1000F894DEBF0FBECDBFDF91CF911F910F9124
:101A2000FF90EF90DF90CF90BF90AF909F908F90FE
:101A30007F906F905F904F903F902F90089580E837
:101A400060E00E946009182FE0CF1111DECF4D85B4
:101A50005E85CBCF8F929F92AF92BF92CF92DF9253
:101A6000EF920F93CF931F921F921F921F92912C70
:101A7000812CB12CA12CD12CC12CE12C062F25E0DE
:101A800040E060E00E94560CC82F6CE271E080E0FC
:101A900090E00E94BC020F900F900F900F908C2F3F
:101AA000CF910F91EF90DF90CF90BF90AF909F902C
:101AB0008F9008952F923F924F925F926F927F92F4
:101AC0008F929F92AF92BF92CF92DF92EF92FF924E
:101AD0000F931F93CF93DF93CDB7DEB7C054D109D7
:101AE0000FB6F894DEBF0FBECDBF3C01162F322ECD
:101AF000232E1F921F92CE0101962C019F938F934C
:101B000099E0892E912C29E0A22EB12CD12CC12C48
:101B100032E0E32E042F26E040E8C3010E94560C79
:101B20000F900F900F900F90811113C0AB80BC806D
:101B30002F923F925F924F9280E4882E912C26E064
:101B400040E8612FC3010E94560C0F900F900F9038
:101B50000F90C05CDF4F0FB6F894DEBF0FBECDBF55
:101B6000DF91CF911F910F91FF90EF90DF90CF9079
:101B7000BF90AF909F908F907F906F905F904F90AD
:101B80003F902F9008952F923F924F925F926F92C5
:101B90007F928F929F92AF92BF92CF92DF92EF92FD
:101BA000FF920F931F93CF93DF93CDB7DEB7CB5642
:101BB000D1090FB6F894DEBF0FBECDBFDC01189679
:101BC0003C9109ED311116C0122FAC964FAFAC9776
:101BD000F62E3C01FC0144805580D201ED91FC9130
:101BE0000190F081E02D60E0C20109951C01009791
:101BF000E1F406ED802FC559DF4F0FB6F894DEBF34
:101C00000FBECDBFDF91CF911F910F91FF90EF904D
:101C1000DF90CF90BF90AF909F908F907F906F900C
:101C20005F904F903F902F900895FC010190F081BC
:101C3000E02DAB96FFAFEEAFAB9707EDEF2BD1F2F8
:101C400093012C5E3F4FA9963FAF2EAFA997DC01C1
:101C500011963C932E9314961C931F921F92FE0193
:101C6000ED5AFF4FA796FFAFEEAFA797FF93EF9305
:101C700022E1822E912C32E1A32EB12CD12CC12C49
:101C8000EE24E39400E026E040E860E0D3011496FF
:101C90008D919C910E94560C082FAB962EAD3FADB6
:101CA000AB97F101318320830F900F900F900F902D
:101CB0008111CBC0D201ED91FC910280F381E02D26
:101CC000AC962FADAC9740E06F2DC2010995F301A2
:101CD000808704ED882309F48DCF6B969FAD6B97B9
:101CE000958B682F848195810E942A0D082FD2013F
:101CF000ED91FC91882371F0D10114961C9204801F
:101D0000F581E02DD30118966C91C2010995F3017C
:101D1000108670CFD30118966C91D10114961C9245
:101D20000190F081E02DC2010995009709F461CF7F
:101D3000FC011483D30114968D919C9115971896EC
:101D4000FC90A996EEADFFADA997EF2B09F401C168
:101D50006F2D0E94F504FC01892B09F4FCC0A596A7
:101D60001FADA597F282A9962EAD3FADA9973183FD
:101D7000208381E08383730132E0E30EF11C88E36A
:101D8000A82E81E0B82E2E018AE3480E511C9EE356
:101D9000C92E91E0D92E1E0191E1290E311C0117A7
:101DA00009F45CC0BBA6AAA6FDA6ECA61EA61BAAAB
:101DB0001CAA1FAA19AE18AE2B961FAE2B972C96F5
:101DC0001FAE2C972D961FAE2D9763961FAE63976F
:101DD00058AA4FA65AAA49AA5EAA4DAADA82C9826F
:101DE000FC82EB821D821A861B861E86188A1F863D
:101DF00019A21AA21BA219A63F822E823986288612
:101E00003D862C869E01265D3F4F402FD3011896BC
:101E10006C91189714968D919C910E945A0D811186
:101E200013C09E012F5F3F4F402FF30160858481D7
:101E300095810E945A0D811107C0D3011C968C9187
:101E4000823060F40F5FABCF082FD301ED91FC918E
:101E50000480F581E02DC3010995CCCEF301048502
:101E6000043008F47AC0448055801085612FC20187
:101E70000E94F504FC01892B41F01283A9962EAD36
:101E80003FADA9973183208303831F921F921F9236
:101E90001F92912C812CB12CA12CD12CC12CE12C86
:101EA000D30119960C9129E040E0612FC2010E94F4
:101EB000560C082F0F900F900F900F908111C5CFE7
:101EC000D301ED91FC910688F789E02DC3010995B6
:101ED000F301838B0190F081E02D068CF78DE02DCE
:101EE00060E0C3010995D301ED91FC91008CF18D67
:101EF000E02D60E0C3010995D301ED91FC91028CC6
:101F0000F38DE02D60E0C3010995D301ED91FC91C3
:101F1000048CF58DE02D60E0C3010995D301ED91AE
:101F2000FC9100A0F1A1E02D60E0C3010995F3014F
:101F300086819781DC01ED91FC910190F081E02D8B
:101F4000B3010995082F811180CF81E0F301828BC5
:101F500051CE08ED7ACF06ED78CF01ED4BCE6F92E2
:101F60007F928F929F92AF92BF92CF92DF92EF9229
:101F70000F931F93CF93DF9300D000D000D01F9218
:101F8000CDB7DEB73B01FB01C284D12C1F921F925B
:101F90001F921F92912C812CB12CA12CE12C03E0DB
:101FA00022E241E26085848195810E94560C182FBF
:101FB0000F900F900F900F908823D1F0843019F07C
:101FC000C3010E94FB03812F27960FB6F894DEBF52
:101FD0000FBECDBFDF91CF911F910F91EF90DF909A
:101FE000CF90BF90AF909F908F907F906F9008950B
:101FF00080E092ECA1E0B0E089839A83AB83BC835C
:102000001D821E8288E08F83F301C284D12C1F922F
:102010001F92CE0101969F938F9387E0882E912C7B
:1020200097E0A92EB12CE12C00E020E241E260858E
:10203000848195810E94560C182F8B7F0F900F90F2
:102040000F900F9009F4BFCFC3010E94FB03BBCFD9
:10205000AF92BF92CF92DF92EF92FF920F931F93B6
:10206000CF93DF9300D000D0CDB7DEB78C016B01EA
:102070007A018091C4048333E9F45B016801C40EE2
:10208000D51EC016D106A9F10E941E038FE00E9442
:10209000F307812F0E94F307802F0E94F3070F5F41
:1020A0001F4F80E00E94F307F50181935F010E94BA
:1020B0001403E7CF843369F50E941E0319830A8352
:1020C0008F2D8F778B83EC8264E070E0CE010196D8
:1020D0000E94FA02A70170E060E0C6010E94E335A9
:1020E000E114F10421F0B701C6010E94FA020E9436
:1020F0001403C7010F900F900F900F90DF91CF91B5
:102100001F910F91FF90EF90DF90CF90BF90AF9015
:1021100008950E941E030F3F110509F030F4198243
:102120000A831B8263E070E0D1CF17FD0BC01982D8
:102130000A8333E0169507953A95E1F7007E08602B
:102140000B83F0CFC80126E0969587952A95E1F795
:10215000807E19830A830115104C18F480618B83EB
:10216000E1CF8861FCCFCF93DF931F92CDB7DEB76D
:102170002091E50330E0322F2227260F371F90E011
:10218000982F882741E050E0BE016F5F7F4F820F9C
:10219000931F0E94281089810F90DF91CF9108959D
:1021A000CF93C82F462F61E070E00E942F0961E0B5
:1021B00070E08C2F0E94B3108111F9CFCF91089558
:1021C000CF93C82F80E591E00E94050168E070E0A0
:1021D0008C2FCF910C94D010CF93C82F80E591E035
:1021E0000E94050160E170E08C2FCF910C94D0101B
:1021F000CF93DF93EC01888D843020F40E94EC10A3
:1022000084E0888FDF91CF910895CF93C82F80E528
:1022100091E00E94050163E070E08C2FCF910C9457
:10222000B310CF93DF93EC018C858430D0F40E94FF
:102230000511843189F0882379F0883169F021E033
:102240008C3159F4E881F9810084F185E02DCE01CB
:10225000099521E0892B09F420E0822FDF91CF91AD
:10226000089580E0FBCFCF92DF92EF92FF92CF9361
:10227000DF93EC018C85843068F40E94E0100E94AA
:10228000EE026B017C018C850E940511811109C051
:1022900084E08C87DF91CF91FF90EF90DF90CF901B
:1022A000089561E070E080E090E00E94BC020E942E
:1022B000EE02AB01BC014C195D096E097F098D85E9
:1022C0009E85B0E0A0E0481759076A077B07D8F25F
:1022D0008C850E94EC10DCCFCF93FC01C08D80E593
:1022E00091E00E94050160E270E08C2F0E94D01006
:1022F00062E070E08C2F0E94B31084FD16C062E093
:1023000070E08C2F0E94B31083FF0AC048E162E0A6
:1023100070E08C2F0E942F0980E090E0CF9108950B
:1023200080E591E00E940501E3CF40E162E070E0CA
:102330008C2F0E942F0981E0F0CFCF93DF931F9263
:10234000CDB7DEB741E050E0BE016F5F7F4F90E058
:1023500080E00E94281089810F90DF91CF9108952D
:10236000CF93DF93C4E1D0E00E949D11882361F0F8
:1023700061E070E080E090E00E94BC022197A1F74C
:1023800080E0DF91CF91089581E0FBCF1F93CF9341
:10239000DF931F92CDB7DEB7182F80E591E00E9442
:1023A0000501812F0E94290327E0129FF0011124CB
:1023B000E855FB4F22813381377041E050E0BE0188
:1023C0006F5F7F4F820F931F0E94281089810F90AB
:1023D000DF91CF911F910895FC01808D843040F4EE
:1023E000218D328D232B21F00E94C61190E008959B
:1023F0008FEF9FEF0895CF93DF93FC012485243066
:1024000028F08FEF9FEFDF91CF910895EC010190BD
:10241000F081E02D0084F185E02D0995892B89F369
:102420008C850E94C61190E0EECFDA01E091E503C1
:10243000F0E0FE2FEE27E60FF71F90E0982F882799
:10244000A901BD018E0F9F1F0C9428108F929F929F
:10245000AF92BF92CF92DF92EF92FF921F93CF93F2
:10246000DF93CDB7DEB72C970FB6F894DEBF0FBE63
:10247000CDBF2091C40414E0222339F16B017C010B
:1024800080E591E00E9405015E0127E0A20EB11CEB
:10249000450110E063E070E0812F0E94B310F40169
:1024A00081934F01882349F11F5F143099F710E0A1
:1024B000F50181915F018D31D9F08831C9F08A51E0
:1024C0008230B0F01F5F143099F7812F2C960FB631
:1024D000F894DEBF0FBECDBFDF91CF911F91FF906B
:1024E000EF90DF90CF90BF90AF909F908F90089526
:1024F00060E170E0812F0E94D010A12EB12C83EEFC
:1025000093E00197F1F742E870E060E0812F0E94CC
:102510002F094FEF62E070E0812F0E942F09B60172
:10252000C114D10491F480911A0190911B0101967C
:102530008115F0EC9F0708F45CC090931B01809319
:102540001A0160911A0170911B01812F0E94E3080A
:1025500086E0E8E2F1E0DE01119601900D928A95A5
:10256000E1F7F70183818F778C8384818D83858167
:102570008E83A7014E5F5F4F24E030E06CE070E097
:10258000812F0E94BD08B601812F0E94CE0826E04F
:1025900030E0AE014F5F5F4F66E070E0812F0E9438
:1025A000BD0861E070E0812F0E94D01027E02A9DD5
:1025B000C0012B9D900D11249C0128553B4F7901A2
:1025C000F9011182108222E030E0AE01455F5F4FD9
:1025D00068E270E0812F0E9415128B859C859827F8
:1025E00089279827F70193838283168215821482A4
:1025F0006CCF80E090ECA1CFCF92DF92EF92FF9270
:102600000F931F93CF93DF9300D000D000D0CDB7AE
:10261000DEB78C016B017A01FC01808D843010F4EF
:102620000E94EC1086EE91E09A838983F601828104
:102630009381A481B5818B839C83AD83BE83B701D5
:10264000CE0101960E942612F801808F8430A0F4FA
:10265000F586E486128E118E81E026960FB6F894E8
:10266000DEBF0FBECDBFDF91CF911F910F91FF90C5
:10267000EF90DF90CF90089580E0EFCFAF92BF92C0
:10268000CF92DF92EF92FF920F931F93CF93DF933E
:1026900000D000D000D0CDB7DEB7082F6B0180E5A9
:1026A00091E00E9405019E012F5F3F4F7901590182
:1026B00010E063E070E0812F0E94B310F501819378
:1026C0005F01882341F11F5F143099F710E0F70193
:1026D00081917F018D31D1F08831C1F08A518230F2
:1026E000A8F01F5F143099F7812F26960FB6F89443
:1026F000DEBF0FBECDBFDF91CF911F910F91FF9035
:10270000EF90DF90CF90BF90AF90089560E170E0C0
:10271000812F0E94D010E12EF12C83EE93E00197DF
:10272000F1F7402F70E060E0812F0E942F094FEFFA
:1027300062E070E0812F0E942F09B601CD2889F454
:1027400080911A0190911B0101968115F0EC9F0771
:1027500098F190931B0180931A0160911A01709176
:102760001B01812F0E94E30861E070E0812F0E942D
:10277000D01027E02E9DC0012F9D900D11249C01AB
:1027800028553B4F7901F9011182108222E030E097
:10279000AE014B5F5F4F68E270E0812F0E9415121F
:1027A0008D819E81982789279827F70193838283BB
:1027B00016821582148298CF80E090ECCACFCF9217
:1027C000DF92EF92FF921F93CF93DF93EC017B0197
:1027D0006A018C85843048F40E940511882319F021
:1027E0008C850E94E01084E08C87F70182819381C0
:1027F000A481B5810097A105B10551F490E080E076
:10280000DF91CF911F91FF90EF90DF90CF900895CF
:102810008F3F9F4FAF4FBF4F89F38091C404811109
:1028200003C084E08C87EACF70E060E081E20E9420
:102830003E13182F8C87843008F780E591E00E94C2
:102840000501A7014E5F5F4F24E030E06CE070E0CF
:10285000812F0E94BD08B601812F0E94CE0864E03E
:1028600070E0812F0E94D0100E94EE026B017C016B
:102870008C850E940511873109F18C31F9F088238C
:1028800009F4BCCF0E94EE02AB01BC014C195D09FA
:102890006E097F098D859E85B0E0A0E084179507BD
:1028A000A607B70738F061E070E080E090E00E9492
:1028B000BC02DECF8C850E94EC10B3CF81E090E0AB
:1028C0009FCF0F931F93CF93DF93EC018B01888DE4
:1028D000843010F40E94EC108091C404811107C070
:1028E00094E0988FDF91CF911F910F910895B801D7
:1028F00082E00E943E13888F843030F41D870C875D
:102900001A8E198E81E0EECF80E0ECCF7F928F920D
:102910009F92AF92BF92CF92DF92EF92FF920F936E
:102920001F93CF93DF9300D0CDB7DEB7782E8B0106
:102930004A01590122E030E0AE014F5F5F4F64E28F
:1029400070E00E941512E980FA80FE24EF24FE2434
:10295000E00EF11E970137704091C404072D10E07E
:10296000433309F042C0085F1F4F102F0027110F9B
:10297000110F110FC901800F911F4733C9F1A90130
:102980004A0D5B1D4130584098F160E078E06B01E2
:10299000C21AD30AA601B4010E94FA07A5014C1974
:1029A0005D09B4016C0D7D1DC8010E94FA07EA0C97
:1029B000FB1CF982EA8222E030E0AE014F5F5F4FFC
:1029C00064E270E0872D0E94BD080F900F90DF91A8
:1029D000CF911F910F91FF90EF90DF90CF90BF901C
:1029E000AF909F908F907F900895005F1F4FBDCF55
:1029F000A501B401DACFEF92FF921F93CF93DF933B
:102A000000D0CDB7DEB7182F22E030E0AE014F5F27
:102A10005F4F60E270E00E941512E980FA80FE24A8
:102A2000EF24FE2422E030E0AE014F5F5F4F60E212
:102A300070E0812F0E94151289819A819827892739
:102A40009827E816F90689F487E0189FF001112409
:102A5000E855FB4FF582E482C7010F900F90DF919C
:102A6000CF911F91FF90EF9008957C01DBCF1F93D2
:102A7000CF93DF93182F80E591E00E940501812F0D
:102A80000E94FB14EC0163E070E0812F0E94B31000
:102A9000873121F08C3111F0D0E0C0E0CE01DF9120
:102AA000CF911F910895CF93DF93EC018C858430F3
:102AB00060F40E940511873111F08C3131F48C855E
:102AC0000E9437158115984088F3DF91CF910895C2
:102AD000FC018485843010F40C94371590E080E07C
:102AE00008959F92AF92BF92CF92DF92EF92FF92A2
:102AF0000F931F93CF93DF938C015B01942EE52EF0
:102B0000FC01C688D788F08C80E591E00E94050121
:102B10008F2D0E94FB14C92DDE2D8C179D0708F404
:102B2000EC019E01A501B6018F2D0E948614F801CB
:102B3000868997898C0F9D1F978B868BCE01DF919D
:102B4000CF911F910F91FF90EF90DF90CF90BF90AA
:102B5000AF909F9008958F929F92AF92BF92CF9225
:102B6000DF92EF92FF920F931F93CF936C015B0163
:102B70008A01FC01C485C430F0F57A014130584027
:102B800018F0E12C88E0F82E80E591E00E94050124
:102B90008C2F0E94FB144C0163E070E08C2F0E948C
:102BA000B310873111F08C3149F58E149F0460F316
:102BB00080E591E00E9405019701A50170E060E0C9
:102BC0008C2F0E94861460E270E08C2F0E94D0103F
:102BD00062E070E08C2F0E94B31084FD17C063E0A8
:102BE00070E08C2F0E94B31081110BC081E090E047
:102BF000F6019383828310E000E010C0F12CE12CF9
:102C0000D7CF80E591E00E940501E2CF40E162E08C
:102C100070E08C2F0E942F09EF2841F3C801CF915B
:102C20001F910F91FF90EF90DF90CF90BF90AF90EA
:102C30009F908F900895FF920F931F93CF93DF93F0
:102C400000D0CDB7DEB7F82E22E030E0AE014F5F06
:102C50005F4F66E270E00E94151209811A81102709
:102C60000127102722E030E0AE014F5F5F4F66E2A0
:102C700070E08F2D0E94151289819A8198278927EB
:102C800098270817190749F4C8010F900F90DF9192
:102C9000CF911F910F91FF9008958C01E3CF1F9367
:102CA000CF93DF93182F87E0189FE0011124C855B8
:102CB000DB4F88819981009761F480E591E00E9463
:102CC0000501812F0E941B162E81821B9109998379
:102CD0008883DF91CF911F910895FC018485843012
:102CE00010F40C944F1690E080E008954F925F929C
:102CF0007F928F929F92AF92BF92CF92DF92EF928C
:102D0000FF920F931F93CF93DF9300D0CDB7DEB721
:102D1000782E6B014A01A82EB12C27E0829FC001BA
:102D20001124FC01E855FB4F7F010081118180E5F2
:102D300091E00E9405010815190554F4872D0E94A1
:102D40001B16F70126818C01021B110911830083D8
:102D50000115110529F563E070E0872D0E94B3107D
:102D6000843159F0882349F001E010E08C3111F4EE
:102D700010E000E0119501951109C8010F900F9026
:102D8000DF91CF911F910F91FF90EF90DF90CF9047
:102D9000BF90AF909F908F907F905F904F900895DD
:102DA000801691060CF4840187E08A9DF0018B9DCA
:102DB000F00D1124E855FB4FE280F380C114D104DB
:102DC00051F12701F7E05F22872D0E942903840D2E
:102DD000951D2091C404273309F453C09801240D94
:102DE000351D2130384008F44CC020E038E049015E
:102DF00084189508A401B6010E9428102601480CE9
:102E0000591C6801C818D908872D0E942903A601FA
:102E1000B2010E942810E00EF11E87E08A9DF001A9
:102E20008B9DF00D1124E855FB4FF382E282208147
:102E30003181201B310B318320838681800F912FBC
:102E4000911D8A3F910510F4232BF1F487E08A9DB0
:102E5000F0018B9DF00D1124E855FB4F1682F9828D
:102E6000EA8222E030E0AE014F5F5F4F68E270E03F
:102E7000872D0E94BD0860E470E0872D0E94D0106D
:102E80007CCFA801B601C5CF868377CFCF93DF93E0
:102E9000FC01218D328D2115310529F48FEF9FEF33
:102EA000DF91CF910895EC01808D4217530708F010
:102EB000A9010E9476161816190684F7298D3A8DF5
:102EC000281B390B3A8F298FEBCF0F931F93CF938A
:102ED000DF931F92CDB7DEB7FC01218D328D232BFE
:102EE00041F48FEF9FEF0F90DF91CF911F910F91E2
:102EF00008958C0141E050E0BE016F5F7F4FFC01FF
:102F0000808D0E947616181619065CF7F801818DDF
:102F1000928D0197928F818F898190E0E4CFCF933A
:102F2000DF931F92CDB7DEB741E050E0BE016F5F87
:102F30007F4FFC0184850E9476161816190634F41A
:102F4000898190E00F90DF91CF9108958FEF9FEFEF
:102F5000F9CFFC018485843010F40C94761690E04F
:102F600080E008950F931F93CF93DF9300D0CDB7E8
:102F7000DEB7FC0124852430E0F48C0180E591E08B
:102F80000E94050122E030E0AE014F5F5F4F60E13B
:102F900070E0F80184850E94151289819A81982732
:102FA000892798270F900F90DF91CF911F910F9154
:102FB000089590E080E0F6CF0F931F93CF93DF93B7
:102FC00000D0CDB7DEB7FC0124852430E0F48C01BD
:102FD00080E591E00E94050122E030E0AE014F5F04
:102FE0005F4F64E070E0F80184850E9415128981CA
:102FF0009A819827892798270F900F90DF91CF917A
:103000001F910F91089590E080E0F6CFFB010190B1
:103010000020E9F73197AF01461B570BDC01ED911A
:10302000FC910280F381E02D099468EE71E086EC5A
:1030300094E00C9406188F929F92AF92BF92EF92F9
:10304000FF920F931F93CF93DF93CDB7DEB7A19776
:103050000FB6F894DEBF0FBECDBF7C01FA01CB01E5
:1030600019A2223008F42AE08E010F5D1F4F822E34
:10307000912CB12CA12CBF01A50194010E94073312
:10308000F901CA016A300CF5605DD8016E938D01BB
:10309000232B242B252B79F790E080E0109721F04B
:1030A000BD01C7010E940618A1960FB6F894DEBFB5
:1030B0000FBECDBFDF91CF911F910F91FF90EF9089
:1030C000BF90AF909F908F900895695CDECF8F92F4
:1030D0009F92AF92BF92CF92DF92EF92FF920F93A7
:1030E0001F93CF93DF937C01EB016C0182E0C80E4C
:1030F000D11C4701E5E08E0E911C10E000E0F601C6
:1031000041916F0150E070E060E02AE0CE010E9442
:103110001B185C01E881F9810190F081E02D6EE2DD
:10312000CE0109958A0D9B1D080F191FC814D904DB
:1031300031F7F701458150E070E060E02AE0CE0110
:103140000E941B18800F911FDF91CF911F910F914B
:10315000FF90EF90DF90CF90BF90AF909F908F90B7
:103160000895CF93DF9366EC74E00E946718EC013A
:103170000E9415188C0F9D1FDF91CF910895CF935A
:10318000DF93BC0186EC94E00E940618EC010E94DB
:1031900015188C0F9D1FDF91CF910895BC0186EC0F
:1031A00094E00C940618DC0186EE91E08D939D93DB
:1031B00084E0FB0101900D928A95E1F70895EF926A
:1031C000FF920F931F93CF93DF9300D000D0CDB722
:1031D000DEB78C017B01FB0184858430A8F086EE8C
:1031E00091E0F80191838083128213821482158208
:1031F000C8010F900F900F900F90DF91CF911F910A
:103200000F91FF90EF90089580E591E00E940501F5
:1032100024E030E0AE014F5F5F4F6CE070E0F701FB
:1032200084850E941512BE016F5F7F4FC8010E9406
:10323000D318DECF0F931F93CF93DF93CDB7DEB7B5
:1032400028970FB6F894DEBF0FBECDBF8C01D80112
:1032500059964D915C915A974115510551F0ED9158
:10326000FC91048CF58DE02D70E060E0C8010995BB
:10327000EECFF801808D0E944F16892BB1F148E006
:1032800050E0BE016F5F7F4FD80158968C910E942D
:10329000761618161906F4F4D801509684E0FE014B
:1032A000319601900D928A95E1F78D8190E0982FEB
:1032B00088272E81820F911DF801958B848B8F8139
:1032C000282F30E0322F22278885820F932F911DDF
:1032D000928F818F28960FB6F894DEBF0FBECDBFB8
:1032E000DF91CF911F910F91089590E080E0F2CF90
:1032F0004F925F926F927F928F929F92AF92BF9206
:10330000CF92DF92EF92FF920F931F93CF93DF93B1
:10331000CDB7DEB763970FB6F894DEBF0FBECDBF53
:103320007C016B013A01FB0120E090E080E06AE063
:103330003191332309F461C040ED430F4A3008F066
:103340004DC0689FA001699F500D1124CA01C0970C
:10335000830F911D37FD9A958F3F910549F340F3F7
:10336000F701428153816481758180919505909127
:103370009605A0919705B0919805481759076A07D7
:103380007B0709F40DC28701085F1F4F0E94EE0200
:103390006F7077277C5FC8010E946114813009F04B
:1033A00004C286EE91E09A838983F701828193813A
:1033B000A481B5818B839C83AD83BE8345E350E0BC
:1033C000BE016F5F7F4FC8010E94F808892BA9F5E5
:1033D000D12CC12CC8010E94F81017C03E3209F050
:1033E000BFCF233009F4BCCFD301A20FB11D129679
:1033F0008C932F5F90E080E09BCF233009F0B0CF1B
:10340000F3018583CC24C394D12CC60163960FB6F7
:10341000F894DEBF0FBECDBFDF91CF911F910F910A
:10342000FF90EF90DF90CF90BF90AF909F908F90E4
:103430007F906F905F904F9008950E94EE02F70189
:103440007783668342E050E0B7016A5F7F4FC8012F
:103450000E94711581E090E09A83898342E050E0F8
:10346000BE016F5F7F4FC8010E94711580E091E03F
:103470009A83898342E050E0BE016F5F7F4FC801AD
:103480000E9471151A82198242E050E0BE016F5FFE
:103490007F4FC8010E94711542E050E0BE016F5F8E
:1034A0007F4FC8010E94711542E050E0BE016F5F7E
:1034B0007F4FC8010E9471155601F6018081882353
:1034C00001F16501F60181912F01882311F08E32FF
:1034D000B1F446018A189B081814190474F48D86F7
:1034E00041E050E0BE01635F7F4FC8010E9471154B
:1034F000A401B501C8010E9471155201DECF62011D
:10350000E1CF1D8641E050E0BE01635F7F4FC801FF
:103510000E947115C12CDD24D394DA82C98242E065
:1035200050E0BE016F5F7F4FC8010E947115DA82C3
:10353000C98242E050E0BE016F5F7F4FC8010E9428
:103540007115C8010E946C11892B09F441CFF3E079
:10355000AF2EB12C230122E0420E511CD4C0F70142
:103560004281538164817581808D918DA28DB38D4F
:10357000481759076A077B0709F008C1848D958DA4
:10358000C59709F003C181A192A15DEFC52EDD248D
:10359000DA940C970CF4ADC04CE050E0BE016F5FC4
:1035A0007F4FC8010E9446178B819C8198278927ED
:1035B00098279A8B898BF7014681578129813A8117
:1035C0004217530709F0E7C097FFE5C08F7092706C
:1035D0003BEFC32EDD24DA94892B09F08AC06F807B
:1035E00078847624672476242AEFC22EDD24DA94A8
:1035F0006114710409F47DC0D12CC12C8D819E8190
:10360000982789279827C816D906F8F441E050E092
:10361000BE01635F7F4FC8010E9446174D8544235A
:1036200031F050E070E060E0C8010E9446178D85DF
:103630008111ECCF44E050E070E060E0C8010E94EE
:103640004617FFEFCF1ADF0AD9CF912C812C41E02A
:1036500050E0BE016D5E7F4FC8010E9446174B8946
:10366000842F807C09F06CC0442331F050E070E07E
:1036700060E0C8010E9446178B898111E8CF42E0C3
:1036800050E0BE01615F7F4FC8010E94461742E0D3
:1036900050E0BE01635F7F4FC8010E94461744E0BF
:1036A00050E070E060E0C8010E94461742E050E040
:1036B000BE016F5E7F4FC8010E9446178F859889B3
:1036C00049895A898115914009F043C0CD84DE842F
:1036D000DC24CD24DC2481E0C816D104D1F54115C9
:1036E000544009F04AC044E050E0B201C8010E94D1
:1036F000461721E0A21AB10809F46CCEFFEFCF16ED
:10370000DF0609F067CE0E94EE023B014C01C801C2
:103710000E941A19181619060CF421CF0E94EE0205
:1037200066197709880999096938734181059105F6
:1037300048F562E370E080E090E00E94BC02E7CFD1
:1037400041E050E070E060E0C8010E9446171B8A2B
:1037500093CF54274527542770E060E0C8010E94AA
:103760004617FFEF8F1A9F0A6814790409F06FCF8C
:1037700096EFC92EDD24DA94BCCFE7EFCE2EDD2400
:10378000DA94B7CFCC24CA94DC2CB3CF6EEFC62E1C
:10379000DD24DA94AECF4CEFC42EDD24DA94A9CF29
:1037A0008EEFC82EDD24DA9430CED12CC12C2DCE54
:1037B000CF92DF92EF92FF920F931F93CF93DF93FD
:1037C000CDB7DEB7AF970FB6F894DEBF0FBECDBF53
:1037D0007C016A0106EE11E01A8309831C861B86B0
:1037E00088EE93E0A0E0B0E08D879E87AF87B88B2E
:1037F00084E491E09A878987188F0F8B198E1A8E2F
:103800001B8E1C8E84E089A31BA70AA71CA61DA6DD
:103810001EA61FA68091890590918A05A0918B050F
:10382000B0918C058EA39FA3A8A7B9A78B839C8377
:10383000AD83BE8318861F82AE01465D5F4FCE0109
:1038400001960E94781981309105B1F4D701ED916C
:10385000FC910488F589E02D1DA30CA38CA59DA5E2
:10386000AEA5BFA58EA39FA3A8A7B9A7A601BE0119
:103870006C5D7F4FC7010995AF960FB6F894DEBF18
:103880000FBECDBFDF91CF911F910F91FF90EF90B1
:10389000DF90CF900895CF92DF92EF92FF920F9337
:1038A0001F93CF93DF93CDB7DEB7AF970FB6F894E2
:1038B000DEBF0FBECDBF8C016B017A0186EE91E0B9
:1038C0009A8389831B821C821D821E821C861B8612
:1038D00048EE53E060E070E04D875E876F87788B3D
:1038E00024E431E03A872987988F8F8B198E1A8EBE
:1038F0001B8E1C8E24E029A39BA78AA71CA61DA6AD
:103900001EA61FA6D8011C968C91843060F40E94DC
:103910000511882321F0F80184850E94E01084E0DD
:10392000D8011C968C938091890590918A05A0916D
:103930008B05B0918C058EA39FA3A8A7B9A78B83F5
:103940009C83AD83BE8318861F82AE01465D5F4FA8
:10395000B601CE0101960E9478190097C1F0D801F6
:10396000ED91FC910684F785E02D86EE91E09DA314
:103970008CA38CA59DA5AEA5BFA58EA39FA3A8A72C
:10398000B9A7A701BE016C5D7F4FC8010995AF962D
:103990000FB6F894DEBF0FBECDBFDF91CF911F9160
:1039A0000F91FF90EF90DF90CF9008957F928F92CC
:1039B0009F92AF92BF92CF92DF92EF92FF920F93BE
:1039C0001F93CF93DF93CDB7DEB7A6970FB6F894CA
:1039D000DEBF0FBECDBF8C01762E942E852E20E249
:1039E000A22ECE0101967C01DC01EA2D1D92EA9502
:1039F000E9F76801F8E4CF0ED11C86EE91E09AA3B6
:103A000089A38FEF8BA38CA38DA38EA343E450E0F7
:103A1000BE016F5D7F4FC6010E94F808019609F450
:103A2000C4C081E089838A8386E0B82EBB821C8271
:103A3000D80114966D917D918D919C9117970E945C
:103A4000DE336D837E838F83988789869A8680E8AC
:103A500090E09C878B874CE150E0B701C6010E9443
:103A60007115FE0137968AE1DF011D928A95E9F70B
:103A70004801B8E08B0E911CF401D70101900D9222
:103A8000BA94E1F740E150E0B701C6010E94711518
:103A9000F7011192AA94E9F796E0A92EB12C40E221
:103AA00050E0B701C6010E947115F1E0AF1AB108EC
:103AB000B1F783E6898392E89A8393E59B838C83AD
:103AC00085E38D8381E08E837F829DE3988797E0F5
:103AD00099878A8786E0F401DE011B9601900D929A
:103AE0008A95E1F78CE0898B8A8B67EF71E0CE01D4
:103AF00043960E94EA35D8011B966C91CE014996F7
:103B00000E942701F8016485CE014B960E9427018F
:103B1000D8011D966C91CE014D960E9427014EE171
:103B200050E0B701C6010E947115B3E07B121EC0C0
:103B300082E3898384E08A83F80196859B83978555
:103B40009C8390899D8391899E8396E39F83888738
:103B5000828D8987838D8A87848D8B87858D8C87DD
:103B60004CE050E0B701C6010E94711587E38983DC
:103B700088E08A8381E08B8383E08C8386E08D8379
:103B80008FE08E838AE38F838BE3888780EE89873B
:103B900081EE8A878FEF8B874BE050E0B701C6013B
:103BA0000E947115C6010E946C11A6960FB6F8947A
:103BB000DEBF0FBECDBFDF91CF911F910F91FF9060
:103BC000EF90DF90CF90BF90AF909F908F907F90BD
:103BD00008950F931F93CF93DF93EC018881998110
:103BE000009759F02A813B812617370730F081E092
:103BF000DF91CF911F910F9108958B016F5F7F4FE0
:103C00000E941035009759F0998388831B830A839B
:103C10002C813D81232B59F7FC011082E8CF80E0F5
:103C2000E7CFCF93DF93EC0188819981009711F062
:103C30000E948734198218821D821C821B821A827C
:103C4000DF91CF910895EF92FF920F931F93CF933F
:103C5000DF93EC017B018A01BA010E94E91D811109
:103C60000BC0CE010E94111ECE01DF91CF911F919A
:103C70000F91FF90EF9008951D830C83B701888109
:103C800099810E94EA35F0CFFC01118210821382E3
:103C9000128215821482FB0101900020E9F731970E
:103CA000AF01461B570B0C94231EFC0180819181B0
:103CB000009711F00C94873408953F924F925F92D1
:103CC0006F927F928F929F92AF92BF92CF92DF922C
:103CD000EF92FF920F931F93CF93DF93CDB7DEB791
:103CE000EC970FB6F894DEBF0FBECDBF7C012A0162
:103CF0003B0169010E94EE024B015C018701085BF8
:103D00001F4FC8010E941A19181619069CF00E942C
:103D1000EE02681979098A099B0946165706680652
:103D2000790608F483C162E370E080E090E00E94CD
:103D3000BC02E7CF42E250E0BE016F5F7F4FC80197
:103D40000E94461789818230D1F0312C832DEC9668
:103D50000FB6F894DEBF0FBECDBFDF91CF911F919C
:103D60000F91FF90EF90DF90CF90BF90AF909F901A
:103D70008F907F906F905F904F903F900895F801E3
:103D8000848995898334910501F76D817E818F81C6
:103D900098850E94DE334B015C01F601808291829E
:103DA000A282B38246E050E0B701685F7F4FCE0148
:103DB0004D960E94CD35892B41F6F7018081918186
:103DC000A281B38188169906AA06BB0608F4BDCF66
:103DD00084819581A681B78188159905AA05BB05BF
:103DE00008F4B3CF89899A89AB89BC89868797877C
:103DF000A08BB18B4EEC50E070E060E0C8010E94F7
:103E00004617312CC7018F9698AB8FA7F701B29652
:103E1000FAABE9AB6701FAE1CF0ED11C89969CABF6
:103E20008BABF701BB96FEABEDAB8254910998AF1B
:103E30008FAB3D97FAAFE9AF41969CAF8BAF47018F
:103E400092E1890E911CF801818D928D1816190648
:103E50000CF07CCFC8010E9465178533910509F4E9
:103E600067C084F58330910509F474C05CF4009751
:103E700051F3019709F464C0C8010E946517AC01B1
:103E8000552777C08630910509F476C0C397A1F70E
:103E9000C8010E94651744E050E06BAD7CADC801DD
:103EA0000E944617F70167A170A581A592A50E94FF
:103EB000DE3367A370A781A792A763AB74AB85AB12
:103EC00096ABC1CF8B33910509F49AC0E4F48633E5
:103ED000910509F46AC0CA9779F6C8010E9465176E
:103EE00044E050E06DA97EA9C8010E944617F70181
:103EF00063A574A585A596A50E94DE3363A774A764
:103F000085A796A7A0CF813E910509F445C08F3FB4
:103F1000910509F498CF803E910509F0ADCFC80115
:103F20000E946517B82E44E050E069A97AA91AC02A
:103F3000C8010E946517C8010E946517382E83CFFB
:103F4000C8010E94651744E050E0B401C8010E9416
:103F5000461779CFC8010E946517B82E44E050E09B
:103F60006FA978ADC8010E9446178B2D8450990B1C
:103F7000AC0170E060E0EACFC8010E946517B82E7E
:103F800044E050E069AD7AADC8010E944617EB2DC0
:103F9000E450FF0BAF01EDCFC8010E946517C801C7
:103FA0000E946517F70186A34ECFC8010E946517CE
:103FB0005C01B601CE0189960E94D3188BA59CA501
:103FC000ADA5BEA5892B8A2B8B2BB1F0EBA9FCA943
:103FD0004080518062807380B601CE0183960E943A
:103FE000D3188DA19EA1AFA1B8A5A5014816590669
:103FF0006A067B0609F044CF44E050E0B601A6CF44
:10400000C8010E94651744E050E06FA578A9C80177
:104010000E944617F70167A570A981A992A90E947D
:10402000DE3367A770AB81AB92AB0DCF33243A94EC
:104030008DCE1F920F920FB60F9211242F933F93A4
:104040004F935F936F937F938F939F93AF93BF93A0
:10405000EF93FF9386EC94E00E94BC01FF91EF91F7
:10406000BF91AF919F918F917F916F915F914F9190
:104070003F912F910F900FBE0F901F9018951F9298
:104080000F920FB60F9211242F938F939F93EF935C
:10409000FF93E091D604F091D7048081E091DC0495
:1040A000F091DD0482FD1BC090818091DF048F5F61
:1040B0008F732091E004821741F0E091DF04F0E07B
:1040C000EA53FB4F958F8093DF04FF91EF919F910F
:1040D0008F912F910F900FBE0F901F901895808198
:1040E000F4CF1F920F920FB60F9211242F933F938C
:1040F0008F939F93AF93BF938091DA039091DB03EB
:10410000A091DC03B091DD033091D90323E0230FAC
:104110002D3758F50196A11DB11D2093D903809329
:10412000DA039093DB03A093DC03B093DD0380916B
:10413000DE039091DF03A091E003B091E1030196CB
:10414000A11DB11D8093DE039093DF03A093E003D4
:10415000B093E103BF91AF919F918F913F912F91C8
:104160000F900FBE0F901F90189526E8230F029610
:10417000A11DB11DD2CFEF92FF92CF93DF93EC013F
:10418000D701698713968C9113978370833011F54B
:1041900012968C91129787FF18C023E030E0F90146
:1041A000EE0FFF1FE20FF31FEC0FFD1F12968C9115
:1041B00012978F70848B14968C91858B86898E7F55
:1041C0008D7F868B8C858F5F8C87DF91CF91FF9061
:1041D000EF9008958230C9F712968C91129722E0E1
:1041E00087FFDCCF21E0DACFEF92FF920F930297A7
:1041F0000E94BB200F91FF90EF9008954F925F9225
:104200006F927F928F929F92AF92BF92CF92DF92E6
:10421000EF92FF926B017C01AC019B010E94D933AC
:104220006BEE71E081111AC046015701E894B7F8AE
:104230002FEF3FEF4FE75FE7C501B4010E94D9338D
:10424000811122C02FEF3FEF4FE75FE7C501B401B7
:104250000E947A311816C4F46FEE71E086EC94E097
:104260000E9406187C010E9415188E0D9F1DFF905C
:10427000EF90DF90CF90BF90AF909F908F907F9006
:104280006F905F904F9008952FEF3FEF4FE75FE4FF
:10429000C701B6010E94D43318161CF463EF71E015
:1042A000DDCF2FEF3FEF4FE75FECC701B6010E9474
:1042B0007A3187FDF3CF20E030E0A901C701B601D4
:1042C0000E947A31B12CA12C87FF0AC06DE286ECE6
:1042D00094E00E94DE015C01F7FAF094F7F8F094A4
:1042E0002AE037ED43EA5BE3C701B6010E943933A8
:1042F0002B013C010E94A5336B017C010E947F31A0
:104300009B01AC01C301B2010E9438332B013C0177
:104310002AE0B701A60186EC94E00E941B187C01FC
:10432000EA0CFB1C6EE286EC94E00E94DE01E80ED3
:10433000F91E20E030E040E251E4C301B2010E94E6
:10434000E0312B013C010E94A5334B01B12CA12C83
:104350002AE0B501A40186EC94E00E941B18E80E47
:10436000F91EC501B4010E947F319B01AC01C3015C
:10437000B2010E94383320E030E040E251E40E9474
:10438000E0310E94A533AB0170E060E02AE086ECEA
:1043900094E00E941B18E80EF91E65CFEF92FF9281
:1043A0000F931F93CF93DF936115710541F480E064
:1043B000DF91CF911F910F91FF90EF9008954115DC
:1043C0005105B1F07B01EC010C811D81040F151F1B
:1043D000B8010E94E91D882351F3288139818C811D
:1043E0009D81B701820F931F0E94EA351D830C83C4
:1043F00081E0DECFCF93DF93EC01FB010190002041
:10440000E9F73197AF01461B570B0E94CE2181116E
:1044100003C0CE010E94111ECE01DF91CF910895FD
:10442000CF93DF93EC01FB018617970749F060817A
:1044300071816115710541F0448155810E94231EEF
:10444000CE01DF91CF9108950E94111EF9CFFC019A
:104450001182108213821282158214826CE476E03B
:104460000C941022CF92DF92EF92FF920F931F9342
:10447000CF93DF93CDB7DEB76A970FB6F894DEBF60
:104480000FBECDBF8C016A017B0150E040E06AEEB7
:1044900071E08CE496E00E94231ECE0101960E94FA
:1044A00027226EEF71E0CE0101960E94FA21BC0135
:1044B0008CE496E00E941022CE0101960E94551EC7
:1044C000CE0101960E94272269E272E0CE01019698
:1044D0000E94FA21BC018CE496E00E941022CE01D9
:1044E00001960E94551ECE0101960E9427226CE281
:1044F00072E0CE0101960E94FA21BC018CE496E0A4
:104500000E941022CE0101960E94551ECE010196F6
:104510000E942722F8014481558160817181CE017A
:1045200001960E94CE21811104C0CE0101960E9405
:10453000111EBE016F5F7F4F8CE496E00E94102237
:10454000CE0101960E94551ECE0101960E9427229F
:1045500066E372E0CE0101960E94FA21BC018CE470
:1045600096E00E941022CE0101960E94551ECE01B7
:1045700045960E9427228E010F5F1F4F22E044E0E4
:10458000C701B6010E94572EFC0101900020E9F7F7
:104590003197AF01481B590BBC01CE0145960E94D3
:1045A000CE21811104C0CE0145960E94111EBE018C
:1045B0006B5E7F4F8CE496E00E941022CE01459600
:1045C0000E94551ECE0101960E94272262E472E0ED
:1045D000CE0101960E94FA21BC018CE496E00E9473
:1045E0001022CE0101960E94551E00915006109196
:1045F000510678011093D7030093D6038AE5809380
:10460000560382E48093570388E58093580384E43B
:104610008093590381E080935A0300935B031092C7
:104620005C0310925D0310925E0310925F03109280
:104630006003109261031092620301151105E1F409
:1046400010926303C8010D969093D7038093D6030D
:1046500086E5E82E83E0F82E075E1F4FC7018655DA
:10466000934008171907E4F0F70161917F0186EC88
:1046700094E00E94DE01F2CF0337110518F093E7B2
:10468000E92EF12C60914C0670914D06A70183E64E
:1046900093E00E94F135F701ED59FC4F1082D2CF23
:1046A0000E94151886EE91E09A83898380913906DD
:1046B00090913A06A0913B06B0913C068B839C8377
:1046C000AD83BE8343E457E2BE016F5F7F4F8DE34E
:1046D00096E00E94DF13892BE9F04091D6035091B8
:1046E000D70366E573E08DE396E00E94AB158DE39A
:1046F00096E00E9433116A960FB6F894DEBF0FBEA3
:10470000CDBFDF91CF911F910F91FF90EF90DF9080
:10471000CF90089587E492E00E94BF18E8CFCF922F
:10472000DF92EF92FF92CF93DF931092C904109221
:10473000C80458EEC52E53E0D52EE12CF12CC092C2
:10474000CA04D092CB04E092CC04F092CD048EE661
:1047500091E09093C7048093C60485EC90E0909319
:10476000D3048093D20484EC90E09093D50480939A
:10477000D40480EC90E09093D7048093D60481EC2D
:1047800090E09093D9048093D80482EC90E09093C9
:10479000DB048093DA0486EC90E09093DD04809350
:1047A000DC041092DF041092E0041092E1041092F5
:1047B000E204C6EED1E0D0936405C0936305109285
:1047C0006505109266051092670510926805D093F2
:1047D0006A05C093690510926B0510926C051092E2
:1047E0006D0510926E05D0937005C0936F05109201
:1047F0007105109272051092730510927405D09392
:104800007605C09375051092770510927805109281
:10481000790510927A05D0937C05C0937B051092A0
:104820007D0510927E0510927F0510928005D09331
:104830008E05C0938D0510928F05109290051092F1
:10484000910510929205D0938805C0938705109228
:10485000890510928A0510928B0510928C05D093D1
:104860008205C093810510928305109284051092F1
:10487000850510928605D0939405C09393051092F8
:104880009505109296051092970510929805D09371
:104890009A05C093990510929B0510929C05109261
:1048A0009D0510929E05D0935306C0935206109218
:1048B00054061092550610925606109257066AEE4C
:1048C00071E08CE496E00E94441E10924006109223
:1048D0003F06C0924106D0924206E0924306F09213
:1048E000440688EB91E090933E0680933D0684E079
:1048F0008093490688EE93E090934B0680934A0696
:10490000D0933806C093370680EC8093390688EA46
:1049100080933A0681E080933B0696E090933C06B4
:104920002EEA31E03093C1052093C0051092C805EE
:104930008093C9051092CA0582EC95E09093C70553
:104940008093C6051092C20588E08093C3058CE36E
:104950008093C4051092C505E0ECF5E081E022ECFF
:1049600035E015868687178634872387359696E047
:10497000EB30F907B1F71092360691E190939F055D
:1049800020E831E03093A1052093A00528EA31E02A
:104990003093A3052093A20520EC35E03093A505C4
:1049A0002093A4052CE131E03093A7052093A605C0
:1049B0001092A8051092AA051092AB058093AC0541
:1049C0001092AD051092AE051092AF051092B00591
:1049D0001092B1051092B20580EA95E00E94210480
:1049E0008093B3051092B40588E08093B5058CE3FD
:1049F0008093B6051092B7051092B80594E0909395
:104A0000B9051092BA051092BB058093BC051092AF
:104A1000BD051092BE058093BF052091A40530917D
:104A2000A5052115310599F0F901EA5AFF4F90E0EB
:104A300080E041915191452B89F48B96880F991F05
:104A4000820F931F20EA35E0FC0131832083DF9140
:104A5000CF91FF90EF90DF90CF9008950196803135
:104A6000910539F7F4CFCF93DF93CDB7DEB76D97CC
:104A70000FB6F894DEBF0FBECDBF789484B58260C8
:104A800084BD84B5816084BD85B5826085BD85B5F2
:104A9000816085BD80916E00816080936E00109270
:104AA00081008091810082608093810080918100EB
:104AB000816080938100809180008160809380007C
:104AC0008091B10084608093B1008091B0008160DA
:104AD0008093B00080917A00846080937A00809106
:104AE0007A00826080937A0080917A00816080935E
:104AF0007A0080917A00806880937A001092C100D9
:104B000084E00E94080161E084E00E944B0282E19F
:104B10000E94080160E082E10E944B0261E082E1B4
:104B20000E944B0286E00E94080161E086E00E943C
:104B30004B020FB6F894A89580916000886180932D
:104B40006000109260000FBEE091D604F091D7048F
:104B500082E08083E091D204F091D3041082E0914E
:104B6000D404F091D5048FEC80831092DE04E091A0
:104B7000DA04F091DB0486E08083E091D804F091C0
:104B8000D904808180618083E091D804F091D904B8
:104B9000808188608083E091D804F091D90480817D
:104BA00080688083E091D804F091D90480818F7D62
:104BB000808382E692E00E94BF1887E00E9408018D
:104BC00061E087E00E944B028AE00E94080160E0F9
:104BD0008AE00E944B0261E08AE00E944B0288E179
:104BE00099E20FB6F894A895809360000FBE909359
:104BF000600080914C0481112AC0109234041092FC
:104C0000330488EE93E0A0E0B0E080933504909305
:104C10003604A0933704B093380484E491E0909371
:104C200032048093310486EE91E0909340048093A7
:104C30003F041092410410924204109243041092D7
:104C4000440484E08093490481E080934C0489EE1D
:104C500093E09093E8038093E7038091E60381114A
:104C600078C060E372E080E090E00E94BC020E94A5
:104C70008D03E4E9F1E0E491F0E0EE0FFF1FEA5864
:104C8000FE4F859194919093E4038093E303E8EAC7
:104C9000F1E0E491E093E2038AE00E9408010E94BF
:104CA000140380E591E00E94050184E38093C4042D
:104CB00080E80E94AA080E94B011882309F42AC241
:104CC00088E00E94AA080E949D11883009F022C243
:104CD00080E10E94AA080E949D11803109F01AC249
:104CE00080E00E94AA080E949D11182F811112C213
:104CF00041E050E0BE016F5F7F4F8FE190E00E9486
:104D000028108981833009F005C280E48093E5038F
:104D100042E06EE170E0812F0E942F0942E06FE1D6
:104D200070E0812F0E942F091F5F143089F740E047
:104D30006EE170E0812F0E942F0940E06FE170E08A
:104D4000812F0E942F091F5F183089F781E080931F
:104D5000E60380E591E00E94050146E050E060E056
:104D600071E089E090E00E94FA0786EE91E09A8374
:104D700089831B821C821D821E8244E050E0BE019A
:104D80006D5F7F4F8FE090E00E94FA070091E7038C
:104D90001091E803D80197961D921D921D921C92C6
:104DA0009A97F80113A614A615A616A69F961D920B
:104DB0001D921D921C92D29780E69AEEA0E0B0E080
:104DC00083AF94AFA5AFB6AF1801FFE32F0E311C30
:104DD00080EA9FE0A0E0B0E0F10180839183A283AC
:104DE000B383F19784E1DF011D928A95E9F786E0AC
:104DF000E0E0F1E0D801189601900D928A95E1F774
:104E0000F801E95BFF4FFC8FEB8F10820E94C12EEF
:104E10002FEC37E040E050E00E949E32DC01CB01F5
:104E20000196A11DB11DF80184839583A683B783E4
:104E300080839183A283B3835801F8E4AF0EB11C41
:104E4000C5010E94F81064E470E0C5010E9461147D
:104E5000882309F4C8C10E94EE022B013C0148EEF0
:104E6000C42E43E0D42EE12CF12C912C812CAB8D5F
:104E7000BC8D8C918330B9F18111BAC1F801848164
:104E80009581A681B7810196A11DB11D848395836B
:104E9000A683B7830E94EE026419750986099709F3
:104EA000A70196010E940733A90161E0C8010E9491
:104EB000D61C81E0AB8DBC8D8C93F1E08F169104F4
:104EC000B1F20E94EE026419750986099709D801AA
:104ED000DB962D913D914D915C91DE97261737071A
:104EE0004807590710F6C5010E94F810F80184819F
:104EF0009581A681B7810196A11DB11D84839583FB
:104F0000A683B7830E94EE02F801ED5BFF4F60833A
:104F10007183828393838A94892809F064C180E530
:104F200091E00E9405010091E7031091E803B801A8
:104F3000625F7F4FCE0101963C010E94D31844E08E
:104F400050E0BE016D5F7F4F8FE090E00E94FA0756
:104F5000B8016A5E7F4FC3010E94D31844E050E05D
:104F6000BE016D5F7F4F81E090E00E94FA07B801BB
:104F70006E5E7F4FC3010E94D31844E050E0BE0133
:104F80006D5F7F4F85E090E00E94FA07B801625E96
:104F90007F4FC3010E94D3188B819C81AD81BE815C
:104FA0008093890590938A05A0938B05B0938C0517
:104FB000B8016E5D7F4FC3010E94D3188B819C8125
:104FC000AD81BE818093830590938405A093850570
:104FD000B09386050E9497027F7380911A01909189
:104FE0001B016827792770931B0160931A018BE6D8
:104FF00092E00E94CE1886EE91E09A8389831B820C
:105000001C821D821E8280E591E00E94050144E021
:1050100050E0BE016D5F7F4F8FE090E00E9428104E
:10502000C3010E94B11886E792E00E94CE1887E380
:1050300096E00E94B11886E892E00E94BF18229A7A
:105040000E948C070E948D03229A0E948C0721984F
:1050500068E188E80E94D20760E288E70E94D207F0
:1050600060E088E70E94D20710E000E088E60E9436
:105070004C090F5F1F4F80FF86C161EC88ED0E94D5
:10508000D20760E680ED0E94D20764E088EE0E94BD
:10509000D20788EE0E944C0982FFFBCF0E94190BB9
:1050A00060E288EC0E94D20761E080E80E94D207AB
:1050B00087E992E00E94BF1860E084E00E944B0202
:1050C00068EC70E080E090E00E94BC022E01A3E159
:1050D0004A0E511C83B1182F127081FD0CC088EC50
:1050E0000E944C0985FF03C00E94190B10E2612F3A
:1050F00088EC0E94D2078091C504813009F43FC238
:1051000008F441C2823009F447C1833009F445C232
:1051100010E059C187E38093C40480E80E94AA0884
:105120000E94B011882329F188E00E94AA080E94F9
:105130009D118830F1F480E10E94AA080E949D111F
:10514000182F8031B1F480E00E94AA080E949D11BE
:1051500081110FC041E050E0BE016F5F7F4F89E3D6
:1051600090E00E9428108981843019F41093E5039F
:10517000EDCD83E38093C40480E80E94AA080E94D6
:10518000B011882371F180E10E94AA080E949D114C
:10519000803139F582E10E94AA080E949D11823176
:1051A00001F580E00E94AA080E949D11811119C09A
:1051B00084E08093E50315E51A8F41E050E0BE01DD
:1051C000665E7F4F8BE190E00E94FA07198F41E005
:1051D00050E0BE01675E7F4F8AE190E00E94FA07CF
:1051E000B5CD1092C4048FE892E00E94BF18FFCFA3
:1051F000843001F5F80184819581A681B7810196FB
:10520000A11DB11D84839583A683B7830E94EE02FE
:105210006419750986099709A70196010E94073349
:10522000A90163E0C8010E94D61CE2E0AB8DBC8DF1
:10523000EC9343CE813049F5D1014D915D916D9153
:105240007C919E012F5F3F4FC8010E945D1E8D8F94
:10525000823009F090C089819A81AB81BC81F801CC
:1052600084839583A683B7830E94EE02641975092F
:1052700086099709A70196010E940733A90163E0F7
:10528000C8010E94D61CED8DD1CF823009F015CE19
:10529000D1014D915D916D917C919E012F5F3F4FAA
:1052A000C8010E945D1E8D8F853009F05DC023E02E
:1052B000EB8DFC8D2083F80187A190A5A1A5B2A557
:1052C000892B8A2B8B2B41F484E893E0A0E0B0E09B
:1052D00087A390A7A1A7B2A7F80183A594A5A5A528
:1052E000B6A5892B8A2B8B2B61F487A190A5A1A54C
:1052F000B2A5B695A7959795879583A794A7A5A7D7
:10530000B6A7F80187A590A9A1A9B2A9892B8A2BD4
:105310008B2BA9F487A190A5A1A5B2A5AC01BD01D5
:1053200023E076956795579547952A95D1F7841B85
:10533000950BA60BB70B87A790ABA1ABB2ABF8014F
:1053400083A594A5A5A5B6A583AB94ABA5ABB6AB39
:1053500087A590A9A1A9B2A987AB90AFA1AFB2AF21
:1053600088248394912CA9CDFD8DF63021F4AB8D4A
:10537000BC8D1C92A2CDBD8DBF3F09F09ECDEB8DA3
:10538000FC8D10829ACD0F3F100709F06FCE8AE393
:1053900093E00E94BF18FFCF10E080919F05807FAF
:1053A000803189F40E94EE0268537F4F8F4F9F4FE8
:1053B000609354047093550480935604909357045B
:1053C000F0E2F0939F0586E196E09C8F8B8F7C0145
:1053D000D7018D919D917D01009739F0DC01ED9110
:1053E000FC910680F781E02D0995B6E3EB16B6E057
:1053F000FB0671F780919F05803409F406C108F01F
:10540000CEC0803209F4EBC0803309F4F8C081319A
:10541000C9F410923606EB8DFC8D81919191FC8F31
:10542000EB8F009739F0DC01ED91FC910480F58160
:10543000E02D0995EB8DFC8DE653F64061F782E196
:1054400080939F05A8958091B205882309F40BC429
:1054500060E084E00E944B021092A7040E94EE02DA
:105460000091A3041091A4042091A5043091A604F6
:10547000011511052105310571F06B017C01C01A80
:10548000D10AE20AF30A97018601013E134924403A
:10549000310508F467C06093A3047093A40480935B
:1054A000A5049093A6048091A4059091A505409130
:1054B000BA056091A8051C8A1B8A1A821982830189
:1054C00092010E94B10A81110CC069817A8128E0A1
:1054D00031E042E150E08B899C890E94C009882319
:1054E00031F0843021F080EA95E00E94FB0362E312
:1054F00070E080E090E00E94BC0286E490E090932F
:10550000070180930601ECE5F4E0119294E0E33AA0
:10551000F907D9F7E090A405F090A5054091B705EB
:105520006091A8051C8A1B8A1A8219828301920144
:10553000C7010E94B10A81110EC049815A816B894D
:105540007C890CE514E026E031E0C7010E94AD0B38
:10555000882309F486C1843009F483C180EA95E088
:105560000E94FB0380E090E0892B09F4B3CD0E94F8
:10557000A801882309F4AECD0E940000ABCDB3E1B1
:10558000B0939F05C5CD80919F05807F803109F440
:10559000BFCDE1E1E0939F05BBCD11E0FECE8135AB
:1055A00009F444C0803809F454C0803509F04ACF6A
:1055B00088EC0E944C0986FF45CF81E580939F05CA
:1055C0000E94EE026C5E7F4F8F4F9F4F609354049A
:1055D00070935504809356049093570433CF0E94E0
:1055E000EE0200915404109155042091560430911C
:1055F0005704601B710B820B930B97FD23CF61E067
:1056000088EE0E94D20780E41BCF88EE0E944C09EE
:1056100080FD18CF88ED0E944C09682F686088EDE6
:105620000E94D20740E540939F050CCF0E94EE02F6
:10563000C0905404D0905504E0905604F090570464
:105640006C197D098E099F0997FDFCCE80E8809337
:105650009F051B8A88E08C8B9CE39D8B2090C60560
:105660003090C7055092C7054092C6051093CA05F1
:105670001F921F927F926F9222E1822E912C32E133
:10568000A32EB12CD12CC12CEE24E39400E026E013
:1056900040E860E080EC95E00E94560C082F3092C4
:1056A000C7052092C6050F900F900F900F908111A3
:1056B0004EC089849A842B843C84CD80CD8EAE806C
:1056C00096E1C92E96E0D92EB12CD6018D919D91EF
:1056D0006D010097F1F5B394B0E1BB12F6CFEB8DFD
:1056E000FC8D81919191FC8FEB8F009709F076C032
:1056F0000F5F0031A1F78091C6059091C705892BF6
:1057000009F45AC01093CA0520E040E060E080EC44
:1057100095E00E94A004F82E882309F44DC0682F5C
:1057200080EC95E00E94F504009709F445C0FC0167
:1057300014836F2D80EC95E00E942A0D082F88239A
:1057400009F48AC06F2D80EC95E00E947E04802FC2
:1057500030C0DC01ED91FC910084F185E02D0995CC
:105760008111B9CFF601929182917F01DC01ED9117
:10577000FC910088F189E02D6A2D0995882309F4B0
:10578000AACFF70180819181DC01ED91FC91048425
:10579000F585E02DA101B4010995882389F0612FD9
:1057A0008B2D0E94490B813D09F495CF882309F484
:1057B00053C0823D09F446CEF0EAF0939F0542CEF5
:1057C000F70180819181DC01ED91FC910684F785E0
:1057D000E02D6D8D09958111E2CF7DCFDC01ED913A
:1057E000FC910084F185E02D0995811181CFEB8C2E
:1057F000FC8CF701929182917F01DC01ED91FC918B
:105800000088F189E02D6A2D0995811109C0612F69
:10581000802F0E94490B982F977F913D39F668CFD2
:10582000F70180819181DC01ED91FC910484F58583
:10583000E02DA101B401099581115ACFF7018081B2
:105840009181DC01ED91FC910684F785E02D6D8D51
:1058500009958823E1F24CCF80E9C82EC0929F05BC
:10586000F1CD80910601909107018634910509F0F0
:10587000ABC10E9415180CE514E0F12CE12C20912D
:10588000060130910701C8018C5594408217930797
:1058900020F56801D8018C91803120F48EE992E0E6
:1058A0000E94CE180F5F1F4FF601408150E070E05C
:1058B00060E020E186EC94E00E941B18FFE0EF1608
:1058C000F10444F42FEFE21AF20A8FE093E00E9411
:1058D000CE18D5CF0E941518D0CF0E941518C090B1
:1058E0009C04D0909D048090980490909904A0907E
:1058F0009A04B0909B048092580490925904A0920C
:105900005A04B0925B04009174041091750480EA0B
:1059100092E00E94CE18A80170E060E02AE086ECD8
:1059200094E00E941B180E941518809184049091A5
:105930008504A0918604B0918704809358049093C5
:105940005904A0935A04B0935B0487EA92E00E9442
:10595000CE18609158047091590480915A04909126
:105960005B040E94FE2080918C0490918D04A09194
:105970008E04B0918F048093580490935904A0939F
:105980005A04B0935B048EEA92E00E94CE186091B4
:1059900058047091590480915A0490915B040E94BC
:1059A000FE208091900490919104A0919204B09176
:1059B00093048093580490935904A0935A04B0938D
:1059C0005B0485EB92E00E94CE18609158047091C0
:1059D000590480915A0490915B040E94FE208091AA
:1059E000940490919504A0919604B09197048093AB
:1059F000580490935904A0935A04B0935B048CEB21
:105A000092E00E94CE1860915804709159048091E0
:105A10005A0490915B040E94FE2083EC92E00E9465
:105A2000CE18C501B4010E94FE20809178049091A7
:105A30007904A0917A04B0917B04809358049093E8
:105A40005904A0935A04B0935B048AEC92E00E943C
:105A5000CE18609158047091590480915A04909125
:105A60005B040E94FE20F12CE12C012B09F49CC068
:105A70008090580490905904A0905A04B0905B0410
:105A800020E030E040EF51E4C501B4010E94D4337E
:105A900061ED72E018160CF07FC0C3010E94441E35
:105AA000B501A401C3010E943222C3010E94551E08
:105AB00080917C0490917D04A0917E04B0917F043C
:105AC0008093580490935904A0935A04B0935B04B4
:105AD00086EF92E00E94CE186091580470915904AC
